:1000000009C016C0BEC014C013C012C011C010C0B9
:100010006EC04CC011241FBECFE9CDBF20E0A0E6CA
:10002000B0E001C01D92A236B207E1F7C1D0EAC02C
:10003000E7CF8FB583608FBD80E886BF08958FB509
:1000400080688FBD83B7826083BF089513BE8FB56C
:100050008F778FBD0895479A87B1816287B986B13E
:100060008B6086B984B3846184BB0895379A089500
:1000700081B5806681BD08958CB38F7C8CBB08955B
:10008000E199FECF8FE08EBBE09A8DB30895E199A0
:10009000FECF8FE08EBB809161008DBBE29AE19A2A
:1000A0000895A99A8BB780628BBF08951F920F9213
:1000B0000FB60F9211248F93389B06C03898399A47
:1000C00085B1809361000DC037983998389A85B111
:1000D0008093600085B7887121F085B7877E806145
:1000E00085BF8F910F900FBE0F901F9018951F9294
:1000F0000F920FB60F9211242F933F934F935F935C
:100100006F937F938F939F93AF93BF93EF93FF93DF
:10011000B39AE199FECF8FE08EBBE09A8DB39091B8
:1001200061008917B8F080916000813898F483B736
:1001300081110AC08FB580688FBD83B7826083BF8D
:1001400085B7877E85BF0BC081DF85B7877E8860D6
:1001500085BF05C07BDF85B7877E886085BF379AFE
:10016000FF91EF91BF91AF919F918F917F916F918F
:100170005F914F913F912F910F900FBE0F901F9065
:1001800018951F920F920FB60F9211248F93B19969
:1001900009C0E199FECF8FE08EBB809161008DBBDD
:1001A000E29AE19A8F910F900FBE0F901F901895D1
:1001B00087B3896087BB8FB583608FBD80E886BFBA
:1001C000479A87B1816287B986B18B6086B984B35B
:1001D000846184BB8CB38F7C8CBBA99A8BB7806203
:1001E0008BBF81B5806681BD85B7877E886085BFFE
:1001F0007894379A85B7806285BF889585B78F7D5B
:0802000085BFF8CFF894FFCF91
:00000001FF
